:020000020000FC
:100000000C9434000C9456000C9458000C945A0034
:100010000C945C000C945E000C9460000C946200E4
:100020000C9464000C9466000C9468000C946A00B4
:100030000C948F000C9491000C9493000C949500F8
:100040000C9497000C9499000C949B000C949D00C8
:100050000C949F000C94A1000C94A3000C94A50098
:100060000C94A7000C94A900F8940FEF04B900ECCD
:100070000093800004E00093810000E80093820078
:1000800009E8009380002BE018EE00918400100F27
:1000900000918500201F209389001093880030E094
:1000A00002E000936F0006BB7894FFCF0000189524
:1000B000000018950000189500001895000018958C
:1000C000000018950000189500001895000018957C
:1000D0000000189530FD03C011E025E011C01FEFAE
:1000E0002AEF00918800100F00918900201F2093B3
:1000F00089001093880040E0141709F430E0189547
:1001000000918800100F00918900201F2093890022
:10011000109388004FEF141709F431E01895000090
:10012000189500001895000018950000189500001B
:10013000189500001895000018950000189500000B
:1001400018950000189500001895000018950000FB
:060150001895000018954F
:00000001FF
