:020000020000FC
:100000000C940200F89407E800937A0000E400934F
:100010007C0000E000937B0002E004B902EC009356
:1000200080000BE10093810008E013E20093870059
:100030001093860000E013E5009389001093880078
:10004000E5D000EF20917800109179002017B4F5E9
:100050000BEE2017D4F506EE2017F4F501EE20176D
:10006000ECF50CED2017E4F507ED2017DCF502EDBB
:100070002017D4F50DEC2017CCF508EC2017C4F5AB
:1000800003EC2017BCF50EEB2017B4F509EB201795
:10009000ACF504EB2017A4F50FEA20179CF50AEA4B
:1000A000201794F505EA20178CF500EA201784F54F
:1000B0000BE920177CF506E9201774F500E013E53D
:1000C0000093890010938800BBCF00E017EB0093EA
:1000D000890010938800B4CF0C948E000C94950086
:1000E0000C949C000C94A3000C94AA000C94B100F6
:1000F0000C94B8000C94BF000C94C6000C94CD0076
:100100000C94D4000C94DB000C94E2000C94E900F5
:100110000C94F0000C94F7000C94FE0001E01BE13D
:1001200000938900109388008BCF01E01FE70093B4
:1001300089001093880084CF01E013EE00938900BA
:10014000109388007DCF02E017E40093890010939C
:10015000880076CF02E01BEA0093890010938800A4
:100160006FCF03E01FE0009389001093880068CFF1
:1001700003E013E7009389001093880061CF03E048
:1001800017ED00938900109388005ACF04E01BE319
:10019000009389001093880053CF04E01FE9009377
:1001A0008900109388004CCF05E013E0009389008C
:1001B0001093880045CF05E017E60093890010935F
:1001C00088003ECF05E01BEC009389001093880067
:1001D00037CF06E01FE2009389001093880030CFEC
:1001E00006E013E9009389001093880029CF07E007
:1001F0001BE5009389001093880022CF08E013E2EA
:1002000000938900109388001BCF789407EC00932B
:0C0210007A0000917A0006FDFCCF0895F2
:00000001FF
