:020000020000FC
:100000000C9434000C9456000C9458000C945A0034
:100010000C945C000C945E000C9460000C946200E4
:100020000C9464000C9466000C9468000C946A00B4
:100030000C947E000C9480000C9482000C9484003C
:100040000C9486000C9488000C948A000C948C000C
:100050000C948E000C9490000C9492000C949400DC
:100060000C9496000C949800F8940FEF04B900ECEF
:100070000093800004E00093810000E80093820078
:1000800000E4009380002BE018EB00918400100F37
:1000900000918500201F209389001093880030E094
:1000A00002E000936F0006BB7894FFCF0000189524
:1000B000000018950000189500001895000018958C
:1000C000000018950000189500001895000018957C
:1000D0000000189530FD04C01EE121E031E003C0AE
:1000E0001EE121E030E000918800100F00918900AE
:1000F000201F209389001093880018950000189500
:10010000000018950000189500001895000018953B
:10011000000018950000189500001895000018952B
:10012000000018950000189500001895000018951B
:04013000000018951E
:00000001FF
