:020000020000FC
:100000000C940200F89407E800937A0000E400934F
:100010007C0000E000937B0002E004B902EC009356
:1000200080000BE10093810008E013E20093870059
:100030001093860000E013E5009389001093880078
:10004000B5D000EF20917800109179002017B4F519
:100050000BEE2017A4F506EE201794F501EE2017FD
:1000600084F50CED201774F507ED201764F502ED0B
:10007000201754F50DEC201744F508EC201734F543
:1000800003EC201724F50EEB201714F509EB2017CD
:1000900004F504EB2017F4F40FEA2017E4F40AEA5D
:1000A0002017D4F405EA2017C4F400EA2017B4F4AA
:1000B0000BE92017A4F406E9201794F412C016C027
:1000C0001AC01EC022C026C02AC02EC032C036C0F0
:1000D0003AC03EC042C046C04AC04EC052C056C0E0
:1000E0005AC000E013E50E94D000AACF00E017EB51
:1000F0000E94D000A5CF01E01BE10E94D000A0CF5C
:1001000001E01FE70E94D0009BCF01E013EE0E94A8
:10011000D00096CF02E017E40E94D00091CF02E019
:100120001BEA0E94D0008CCF03E01FE00E94D000A9
:1001300087CF03E013E70E94D00082CF03E017EDE2
:100140000E94D0007DCF03E01BE30E94D00078CF57
:1001500004E01FE90E94D00073CF05E013E00E9485
:10016000D0006ECF05E017E60E94D00069CF05E011
:100170001BEC0E94D00064CF06E01FE20E94D0007A
:100180005FCF06E013E90E94D0005ACF07E01BE5DD
:100190000E94D00055CF08E013E20E94D00050CF5B
:1001A00000938900109388000895789407EC0093D9
:0C01B0007A0000917A0006FDFCCF089553
:00000001FF
